:020000040000FA
:060000000A128A110C280F
:10000800FE00030EF1000A08F2000A128A114A29BA
:100018000A128A110F2883120313A701A801A90144
:10002800AA0183010A128A1119280A128A11FA21CF
:100038000A128A110A128A11D1210A128A110A1285
:100048008A11A3220A128A110A128A119C220A1200
:100058008A11003083120313A000A1000130A2000E
:100068000030A3001230A6002608A4000A128A1144
:10007800A6210A128A1196300A128A1179210A12C7
:100088008A11003083120313A000A1000230A200DD
:100098000030A3003430A6002608A4000A128A11F2
:1000A800A6210A128A1196300A128A1179210A1297
:1000B8008A110A128A11A3220A128A110A128A11B3
:1000C8009C220A128A11003083120313A000A10097
:1000D8000130A2000030A3002330A6002608A400A7
:1000E8000A128A11A6210A128A1196300A128A1156
:1000F80079210A128A11003083120313A000A1008B
:100108000230A2000030A3000130A6002608A40097
:100118000A128A11A6210A128A1196300A128A1125
:1001280079210A128A110A128A118D220A128A1159
:10013800831203132903031DA228A3289C28A901BD
:100148002A08031DA828A928AF281E08A6002608E3
:10015800A800280886002A03031DB328B428BA2853
:100168001E08A6002608A700270887009F149C28B9
:060178000A128A110C2896
:1002000001308A000408840A820700342D344D34FA
:1002100050344C344134423458342D3458344334FF
:1002200038342D345034493443342D3400344C3474
:10023000413442344F345234413454344F345234C4
:1002400049344F3420344E346F342E343334003438
:100250004D3441344E3445344A344F3420345034D4
:1002600041344E3445344C3420344C3443344434DB
:1002700000344C3475346934733420344E342E34A5
:1002800020343134383434343834323455345634FC
:10029000473400340B1D4D294E2972298312031354
:1002A0002A08031D5429552956291F152A03031D01
:1002B0005A295B295C291F110130F0007008AA0738
:1002C00002302A02031C652966296729AA019F18A2
:1002D0006A296B296D29A901A90A0B1182308100B5
:1002E000A901A90A72088A00710E8300FE0E7E0E13
:1002F0000900F400F501F6019829F701F801013031
:10030000F7070318F80A0030F8077808803AFF006A
:1003100080307F02031D8E29FF307702031C912954
:1003200092297F290130F5070318F60A0030F607F5
:100330007608803AF30080307302031DA129740807
:100340007502031CA429A5297D290800B3292008CA
:10035000803EFA007A08A500C2292008C03EFA00B3
:100360007A08A500C229831203132308003A03194F
:10037000BA29A7292208013A0319A729033A031920
:10038000AD29A72925080A128A117B220A128A118F
:100390008312031324080A128A111E220A128A11D8
:1003A00008008316031309108910880183120313B0
:1003B00009108910880132300A128A1179210A1233
:1003C0008A1102300A128A117B220A128A113830ED
:1003D0000A128A117B220A128A110C300A128A111F
:1003E0007B220A128A1106300A128A117B220A1213
:1003F0008A11080003308316031385000330831627
:100400000317880089018316031386018701880179
:1004100089018312031386018701880189018316EC
:100420000313811281110110811401118B160B111C
:100430008B1782308312031381000800F900302AE1
:10044000790884000A128A1100210A128A110A12FC
:100450008A1169220A128A110130F8007808F90716
:10046000790884000A128A1100210A128A11003ABE
:10047000031D3B2A3C2A202A0800F400F501F6015E
:10048000482A00000130F5070318F60A0030F60785
:100490007608803AF30080307302031D512A7408F5
:1004A0007502031C542A552A412A0800831203139B
:1004B000891405300A128A113D220A128A11831208
:1004C0000313891005300A128A113D220A128A117B
:1004D0000800F700831203130914770888000A1232
:1004E0008A1156220A128A1132300A128A113D22CA
:1004F0000A128A110800F9008312031309107908FF
:1005000088000A128A1156220A128A1102300A122F
:100510008A1179210A128A110800831603139F1386
:100520009F121F12831203139F131F179F121F1274
:100530009F111F111F14080002300A128A117B221A
:100540000A128A11080001300A128A117B220A124B
:040550008A11080004
:04400E00D4E0FFFFFC
:00000001FF
