:020000040000FA
:060000000A128A110C280F
:10000800FE00030EF0000A08F1000A128A113B28CC
:100018000A128A110F2883010A128A1164280330F0
:10002800831603138500033083160317880089019C
:10003800831603138601870188018901831203133C
:1000480086018701880189018316031381128111B2
:100058000110811401118B160B11823083120313C6
:1000680081000A128A1155200A128A1108000B1DF4
:100078003E283F284E280B1182308312031381003B
:100088001F194728482849281F151F1D4C284D2887
:100098004E281F1171088A00700E8300FE0E7E0E16
:1000A8000900831603139F139F121F128312031351
:1000B8009F131F179F121F129F111F111F14080053
:1000C8000A128A1113200A128A1169280A128A113F
:0200D8000C28F2
:04400E00D4E0FFFFFC
:00000001FF
