:020000040000FA
:060000000A128A110C280F
:10000800FE00030EF5000A08F6000A128A111728E6
:100018000A128A110F28F001F101F201F30183019C
:100028000A128A1172280B1D1A281B2843287308E4
:10003800031D1F2820282328831203131F15730369
:10004800031D272828282B28831203131F1101308A
:10005800F4007408F30702307302031C34283528AF
:100068003628F301831203139F183B283C283E28A7
:10007800F201F20A0B1182308100F201F20A7608CD
:100088008A00750E8300FE0E7E0E0900033083166B
:10009800031385000330831603178800890183162C
:1000A80003138601870188018901831203138601DE
:1000B80087018801890183160313811281110110B8
:1000C800811401118B160B118230831203138100E6
:1000D8000A128A118F200A128A1108000A128A113C
:1000E8004A200A128A117203031D7B287C2877286C
:1000F800F2017308031D81288228882883120313BC
:100108001E08F7007708F100831203139F1477285D
:100118000A128A110C28831603139F139F121F12A9
:10012800831203139F131F179F121F129F111F1172
:040138001F14080088
:04400E00D4E0FFFFFC
:00000001FF
