:020000040000FA
:060000000A128A110C280F
:10000800FE00030EF1000A08F2000A128A11D02E2F
:100018000A128A110F2883120313C101C201C301F6
:10002800C401C501C601C701C801C901CA01CB0184
:10003800CC0183010A128A11AB2B83120313BD0072
:10004800FA303D02031C29282A282E28FA30A90054
:100058002908BD00BF013230A0000030A1003230B5
:10006800F3000030F4003D08A900AA012908F500B2
:100078002A08F6000A128A113B260A128A118312EC
:1000880003133D08AB0073082B02A2007409031880
:10009800013EA3000A128A11D2250A128A1183127C
:1000A80003132008AC002C08AE003D08A900AA01E3
:1000B8002908F5002A08F6003230F3000030F40071
:1000C8000A128A113B260A128A1174088312031332
:1000D800B8007308B7000530A0000030A100323026
:1000E800F3000030F4003D08A900AA012908F50032
:1000F8002A08F6000A128A113B260A128A11730886
:1001080083120313AB007408AC000530F300003011
:10011800F4003808F6003708F5000A128A113B2661
:100128000A128A117308831203132B02A20074089F
:10013800031C740A2C02A3000A128A11D2250A127F
:100148008A11831203132008AD002D08AF003D0863
:10015800A900AA012908F5002A08F6003230F300A0
:100168000030F4000A128A113B260A128A11740818
:1001780083120313B8007308B7000530F30000308A
:10018800F4003808F6003708F5000A128A113B26F1
:100198000A128A11730883120313A9002907AA00F7
:1001A8002A08B000313084000630FF008313800134
:1001B800840AFF0BDA282E08A900AA012908B10031
:1001C8002A08B2002F08A900AA012908B3002A08A2
:1001D800B4003008A900AA012908B5002A08B60009
:1001E8002808031DF828F9284D2AB901BA018312F5
:1001F80003133908A9002907313E84008313000836
:10020800AA002A08BE0039083A04031D0C290D2942
:100218000F29BF01BF0A39033A04031D1429152900
:1002280019290330A9002908BF00023039063A0409
:10023800031D1F29202924290430A9002908BF00EB
:100248003E08031D282929293D293F08A900AA019C
:100258002908A0002A08A1000230A2000030A3004B
:100268002130AB002B08A4000A128A117D270A123C
:100278008A11831203133E03031D43294429582975
:100288003F08A900AA012908A0002A08A1000230F5
:10029800A2000030A3006730AB002B08A4000A12AC
:1002A8008A117D270A128A110230831203133E062F
:1002B800031D5F29602974293F08A900AA0129089C
:1002C800A0002A08A1000230A2000030A300693073
:1002D800AB002B08A4000A128A117D270A128A1182
:1002E8000330831203133E06031D7B297C299029C2
:1002F8003F08A900AA012908A0002A08A100023085
:10030800A2000030A3003230AB002B08A4000A1270
:100318008A117D270A128A110430831203133E06BC
:10032800031D97299829AC293F08A900AA01290883
:10033800A0002A08A1000230A2000030A3006B3000
:10034800AB002B08A4000A128A117D270A128A1111
:100358000530831203133E06031DB329B429C829A7
:100368003F08A900AA012908A0002A08A100023014
:10037800A2000030A3006D30AB002B08A4000A12C5
:100388008A117D270A128A110630831203133E064A
:10039800031DCF29D029E4293F08A900AA0129086B
:1003A800A0002A08A1000230A2000030A3006F308C
:1003B800AB002B08A4000A128A117D270A128A11A1
:1003C8000730831203133E06031DEB29EC29002A8C
:1003D8003F08A900AA012908A0002A08A1000230A4
:1003E800A2000030A3007130AB002B08A4000A1251
:1003F8008A117D270A128A110830831203133E06D8
:10040800031D072A082A1C2A3F08A900AA0129084F
:10041800A0002A08A1000230A2000030A300733017
:10042800AB002B08A4000A128A117D270A128A1130
:100438000930831203133E06031D232A242A382A6F
:100448003F08A900AA012908A0002A08A100023033
:10045800A2000030A3007530AB002B08A4000A12DC
:100468008A117D270A128A11013083120313B907F2
:100478000318BA0A0030BA073A08803AFF008030F9
:100488007F02031D492A03303902031C4C2A4D2AD6
:10049800FB28831203132803031D532A542AAA2B6B
:1004A800BB01BC01831203133B08A9002907313E95
:1004B800840083130008AA002A08BE003B083C04F5
:1004C800031D672A682A6C2A0730A9002908BF007B
:1004D8003B033C04031D712A722A762A0930A900BD
:1004E8002908BF0002303B063C04031D7C2A7D2AF4
:1004F800812A0A30A9002908BF003E08031D852A61
:10050800862A9A2A3F08A900AA012908A0002A08D1
:10051800A1000230A2000030A3002130AB002B085C
:10052800A4000A128A117D270A128A118312031362
:100538003E03031DA02AA12AB52A3F08A900AA0143
:100548002908A0002A08A1000230A2000030A30058
:100558006730AB002B08A4000A128A117D270A1203
:100568008A110230831203133E06031DBC2ABD2ADA
:10057800D12A3F08A900AA012908A0002A08A10039
:100588000230A2000030A3006930AB002B08A400A1
:100598000A128A117D270A128A1103308312031363
:1005A8003E06031DD82AD92AED2A3F08A900AA0128
:1005B8002908A0002A08A1000230A2000030A300E8
:1005C8003230AB002B08A4000A128A117D270A12C8
:1005D8008A110430831203133E06031DF42AF52AF8
:1005E800092B3F08A900AA012908A0002A08A10090
:1005F8000230A2000030A3006B30AB002B08A4002F
:100608000A128A117D270A128A11053083120313F0
:100618003E06031D102B112B252B3F08A900AA010C
:100628002908A0002A08A1000230A2000030A30077
:100638006D30AB002B08A4000A128A117D270A121C
:100648008A110630831203133E06031D2C2B2D2B13
:10065800412B3F08A900AA012908A0002A08A100E7
:100668000230A2000030A3006F30AB002B08A400BA
:100678000A128A117D270A128A110730831203137E
:100688003E06031D482B492B5D2B3F08A900AA01F4
:100698002908A0002A08A1000230A2000030A30007
:1006A8007130AB002B08A4000A128A117D270A12A8
:1006B8008A110830831203133E06031D642B652B31
:1006C800792B3F08A900AA012908A0002A08A1003F
:1006D8000230A2000030A3007330AB002B08A40046
:1006E8000A128A117D270A128A110930831203130C
:1006F8003E06031D802B812B952B3F08A900AA01DC
:100708002908A0002A08A1000230A2000030A30096
:100718007530AB002B08A4000A128A117D270A1233
:100728008A11013083120313BB070318BC0A003077
:10073800BC073C08803AFF0080307F02031DA62BCF
:1007480003303B02031CA92BAA2B562A08000A12C5
:100758008A1159270A128A110A128A1130270A1295
:100768008A110A128A15D1270A128A110A128A15C1
:10077800D8270A128A11003083120313A000A1009F
:100788000130A2000030A3002330C0004008A400BC
:100798000A128A117D270A128A1196300A128A11C2
:1007A80003270A128A11003083120313A000A10044
:1007B8000230A2000030A3004530C0004008A40069
:1007C8000A128A117D270A128A1196300A128A1192
:1007D80003270A128A110A128A15D1270A128A11C6
:1007E8000A128A15D8270A128A11003083120313B5
:1007F800A000A1000130A2000030A3003430C000E6
:100808004008A4000A128A117D270A128A1196301C
:100818000A128A1103270A128A110030831203135D
:10082800A000A1000230A2000030A3000130C000E7
:100838004008A4000A128A117D270A128A119630EC
:100848000A128A1103270A128A110A128A15D12755
:100858000A128A110A128A15D8270A128A11003038
:1008680083120313A000A1000130A2000030A300EE
:100878005630C0004008A4000A128A117D270A12C7
:100888008A11003083120313A000A1000230A200D5
:100898000030A3001230C0004008A4000A128A11D8
:1008A8007D270A128A11003083120313AA00003030
:1008B800A9002530A8008030A7000A128A119426C2
:1008C8000A128A110A128A15DF270A128A1183125C
:1008D80003134B03031D712C722C862CCB014C087F
:1008E800031D772C782C7C2C1E08C0004008CA00F9
:1008F8004C03031D802C812C852C1E08C000400849
:10090800C9009F1414304806031D8B2C8C2C6B2CAB
:100918004708031D902C912C982CA8014A080A120C
:100928008A1121200A128A11831203134703031D17
:100938009E2C9F2CA72CA801A80A49080A128A11E4
:1009480021200A128A11013083120313C0004008C3
:10095800C70702304702031CB22CB32CB42CC701C2
:10096800C8016B2C0A128A110C2883120313A201E6
:10097800F61FBF2CC02CCD2CF309F409F509F60994
:10098800F30A0319F40A0319F50A0319F60AA2016E
:10099800A20AFA1FD02CD12CE02CF709F809F90982
:1009A800FA09F70A0319F80A0319F90A0319FA0ADE
:1009B8000130A0002008A2060030A6000030A500E3
:1009C8000030A4000030A300760875047404730492
:1009D8000319EF2CF02C3D2DA101A10A002D0130A7
:1009E800A0000310F30DF40DF50DF60DA00BF52C7A
:1009F8000130A0002008A107F61F032D042DF32CB9
:100A08000130A0000310A30DA40DA50DA60DA00B89
:100A1800062D76087A02031D1B2D75087902031D21
:100A28001B2D74087802031D1B2D73087702031C05
:100A38001E2D1F2D2E2D7308F7027408031C740F2A
:100A4800F8027508031C750FF9027608031C760F67
:100A5800FA02231401300310F60CF50CF40CF30C15
:100A6800FF3E031D2F2D0130A102031D3C2D3D2DFE
:100A7800042D22080319412D422D4D2DA309A40947
:100A8800A509A609A30A0319A40A0319A50A0319A3
:100A9800A60A2608F6002508F5002408F40023080D
:100AA800F300080005308A000408840A820700342D
:100AB8002D344D3450344C344134423458342D3470
:100AC8005834433438342D345034493443342D3475
:100AD80000347C3430342E343034303456347C3462
:100AE80030342E343034303456347C34303430346E
:100AF800303400344C34413442344F34523441346D
:100B080054344F34523449344F3420344E346F34D3
:100B18002E34333400344D3441344E3445344A3461
:100B28004F342034503441344E3445344C3420341E
:100B38004C344334443400344C347534693473349D
:100B480020344E342E34203431343834343438346C
:100B5800323455345634473400347C3453344534B5
:100B68004E342E3432347C34533445344E342E349F
:100B780031347C3420344334543400343134003438
:100B880032340034343400343534003436340034EC
:100B980037340034383400343934003483120313C2
:100BA800A501A11FD82DD92DE02DA009A109A00AC2
:100BB8000319A10AA501A50AA31FE32DE42DED2D14
:100BC800A209A309A20A0319A30A0130FA007A08A4
:100BD800A506A601A701200821040319F42DF52D67
:100BE8002C2EA401A40A032E01300310A00DA10D80
:100BF800FF3E031DF92D0130FA007A08A407A11F52
:100C0800062E072EF82D01300310A60DA70DFF3E66
:100C1800031D082E21082302031D142E200822027A
:100C2800031C172E182E1F2E2008A2022108031CB1
:100C3800A303A302261401300310A10CA00CFF3E4D
:100C4800031D202E0130A402031D2B2E2C2E072E4F
:100C580025080319302E312E362EA609A709A60A13
:100C68000319A70A2708A1002608A0000800F9010F
:100C7800F61F3F2E402E472EF509F609F50A0319EF
:100C8800F60AF901F90AF41F4A2E4B2E502EF309E1
:100C9800F409F30A0319F40A730874040319552EA6
:100CA800562E852EF801F80A642E01300310F30D34
:100CB800F40DFF3E031D5A2E0130F7007708F807A0
:100CC800F41F672E682E592E74087602031D6E2EA7
:100CD80073087502031C712E722E782E7308F502A4
:100CE8007408031CF603F60201300310F40CF30C2D
:100CF800FF3E031D792E0130F802031D842E852E38
:100D0800682E79080319892E8A2E8F2EF509F6097F
:100D1800F50A0319F60A7608F4007508F3000800C6
:100D2800831203132A08F6002908F5002808F4009E
:100D38002708F3000030FA003D30F9000930F800C8
:100D48000030F7000A128A11B9240A128A117608AB
:100D580083120313AE007508AD007408AC00730865
:100D6800AB000030F6000030F5000030F4004030F1
:100D7800F3002E08FA002D08F9002C08F8002B08BB
:100D8800F7000A128A11B9240A128A117308FF3E61
:100D980083160313990008000B1DD32ED42EFC2EA6
:100DA800831203134C08031DDA2EDB2EDC2E1F15CD
:100DB8004C03031DE02EE12EE22E1F110130F0003E
:100DC8007008CC070130F0007008C80702304C02E8
:100DD800031CEF2EF02EF12ECC019F18F42EF52EC9
:100DE800F72ECB01CB0A0B1182308100CB01CB0A45
:100DF80072088A00710E8300FE0E7E0E0900F40050
:100E0800F501F601222FF701F8010130F707031861
:100E1800F80A0030F8077808803AFF0080307F022F
:100E2800031D182FFF307702031C1B2F1C2F092FBF
:100E38000130F5070318F60A0030F6077608803AFD
:100E4800F30080307302031D2B2F74087502031CF6
:100E58002E2F2F2F072F0800831603130910891030
:100E680088018312031309108910880132300A128D
:100E78008A1103270A128A1102300A128A15EE27EC
:100E88000A128A1138300A128A15EE270A128A11B4
:100E98000C300A128A15EE270A128A1106300A1235
:100EA8008A15EE270A128A110800033083160313E5
:100EB80085000330831603178800890183160313FE
:100EC800860187018801890183120313860187013E
:100ED800880189018316031381128111011081147D
:100EE80001118B160B118B178230831203138100AB
:100EF80008008312031322032304031D842F852F64
:100F08008B2F2008803EFA007A08A500902F200831
:100F1800C03EFA007A08A50025080A128A15EE27AD
:100F28000A128A118312031324080A128A119F27AE
:100F38000A128A110800F900B12F790884000A12F0
:100F48008A1156250A128A110A128A11EA270A12E8
:100F58008A110130F8007808F907790884000A1224
:100F68008A1156250A128A11003A031DBC2FBD2F7B
:100F7800A12F0800F400F501F601C92F0000013087
:100F8800F5070318F60A0030F6077608803AF300EA
:100F980080307302031DD22F74087502031CD52FED
:100FA800D62FC22F080083120313891405300A12A2
:100FB8008A11BE270A128A11831203138910053079
:100FC8000A128A11BE270A128A110800F700831232
:100FD80003130914770888000A128A11D7270A12FE
:100FE8008A1132300A128A11BE270A128A110800A1
:101FA20001300A128A15EE270A128A150800023039
:101FB2000A128A15EE270A128A15080083160313DD
:101FC2009F139F121F12831203139F131F179F1237
:101FD2001F129F111F111F140800F900831203130F
:101FE2000910790888000A128A11D7270A128A155D
:0E1FF20002300A128A1103270A128A1508000B
:04400E00D4E0FFFFFC
:00000001FF
