:020000040000FA
:060000000A128A110C280F
:10000800FE00030EF1000A08F2000A128A11C02B42
:100018000A128A110F2883120313B001B101B20129
:10002800B301B401B50183010A128A116929831247
:100038000313AD003330A0000030A1003330F300CB
:100048000030F4002D08A900AA012908F5002A08A3
:10005800F6000A128A1167230A128A1183120313FF
:100068002D08AB0073082B02A20074090318013E87
:10007800A3000A128A11FE220A128A11831203139C
:100088002008AC002C08AE002808031D4C284D2879
:10009800D6282E08031D5128522863280030A000B6
:1000A800A1000230A2000030A3006730A90029088F
:1000B800A4000A128A116D240A128A1168292E03D3
:1000C800031D6728682879280030A000A1000230A5
:1000D800A2000030A3006E30A9002908A4000A126B
:1000E8008A116D240A128A11682902302E06031D0E
:1000F8007E287F2890280030A000A1000230A200AE
:100108000030A3007530A9002908A4000A128A113A
:100118006D240A128A11682903302E06031D9528BA
:100128009628A7280030A000A1000230A2000030C5
:10013800A3007C30A9002908A4000A128A116D24A2
:100148000A128A11682904302E06031DAC28AD282E
:10015800BE280030A000A1000230A2000030A30099
:100168008330A9002908A4000A128A116D240A12F2
:100178008A11682905302E06031DC328C428D528EE
:100188000030A000A1000230A2000030A3008A3095
:10019800A9002908A4000A128A116D240A128A11DA
:1001A800682968292803031DDA28DB2868292E080E
:1001B800031DDF28E028F2280630A0000030A10047
:1001C8000230A2000030A3006730A9002908A4006B
:1001D8000A128A116D240A128A1168292E03031D36
:1001E800F628F72809290630A0000030A1000230BF
:1001F800A2000030A3006E30A9002908A4000A124A
:100208008A116D240A128A11682902302E06031DEC
:100218000E290F2921290630A0000030A100023044
:10022800A2000030A3007530A9002908A4000A1212
:100238008A116D240A128A11682903302E06031DBB
:100248002629272939290630A0000030A1000230CC
:10025800A2000030A3007C30A9002908A4000A12DB
:100268008A116D240A128A11682904302E06031D8A
:100278003E293F2951290630A0000030A100023054
:10028800A2000030A3008330A9002908A4000A12A4
:100298008A116D240A128A11682905302E06031D59
:1002A80056295729D5280630A0000030A100023071
:1002B800A2000030A3008A30A9002908A4000A126D
:1002C8008A116D240A128A1108000A128A11492417
:1002D8000A128A110A128A1120240A128A110A1291
:1002E8008A1114250A128A110A128A110D250A1276
:1002F8008A11003083120313A000A1000130A2006C
:100308000030A3003430AF002F08A4000A128A116D
:100318006D240A128A1196300A128A11F3230A12DE
:100328008A11003083120313A000A1000230A2003A
:100338000030A3005630AF002F08A4000A128A111B
:100348006D240A128A1196300A128A11F3230A12AE
:100358008A110A128A1114250A128A110A128A119C
:100368000D250A128A11003083120313A000A10080
:100378000130A2000030A3004530AF002F08A400D0
:100388000A128A116D240A128A1196300A128A11E9
:10039800F3230A128A11003083120313A000A1006C
:1003A8000230A2000030A3001230AF002F08A400D2
:1003B8000A128A116D240A128A1196300A128A11B9
:1003C800F3230A128A110A128A1114250A128A11B1
:1003D8000A128A110D250A128A110030831203139A
:1003E800A000A1000130A2000030A3000130AF003E
:1003F8002F08A4000A128A116D240A128A110030EB
:1004080083120313A000A1000230A2000030A30051
:100418002330AF002F08A4000A128A116D240A1293
:100428008A110A128A11FE240A128A1183120313EE
:100438003403031D202A212A352AB4013508031D57
:10044800262A272A2B2A1E08AF002F08B3003503B7
:10045800031D2F2A302A342A1E08AF002F08B200A5
:100468009F1414303106031D3A2A3B2A1A2A3008F1
:10047800031D3F2A402A472AA80133080A128A1175
:100488001B200A128A11831203133003031D4D2AFD
:100498004E2A562AA801A80A32080A128A111B20D5
:1004A8000A128A11013083120313AF002F08B00714
:1004B80002303002031C612A622A632AB001B101AA
:1004C8001A2A0A128A110C2802308A000408840A9F
:1004D800820700342034533445344E342E343134BA
:1004E8002034533445344E342E343234203443349B
:1004F8005434203400342D344D3450344C34413489
:10050800423458342D345834433438342D3450342C
:10051800493443342D3400342D3430342E343034BF
:10052800303456342D3430342E343034303456345C
:100538002D3430343034303400344C344134423487
:100548004F345234413454344F34523449344F3494
:1005580020344E346F342E34333400344D34413427
:100568004E3445344A344F342034503441344E34B8
:1005780045344C3420344C344334443400344C3403
:1005880075346934733420344E342E342034313485
:1005980038343434383432345534563447340034EB
:1005A8002D3430342E3430343034563400342D3435
:1005B80031342E3430343034563400342D3432341F
:1005C8002E3430343034563400342D3433342E3411
:1005D80030343034563400342D3434342E343034FE
:1005E8003034563400342D3435342E3430343034ED
:1005F8005634003483120313A501A11F042B052BC5
:100608000C2BA009A109A00A0319A10AA501A50A92
:10061800A31F0F2B102B192BA209A309A20A031938
:10062800A30A0130FA007A08A506A601A701200846
:1006380021040319202B212B582BA401A40A2F2BAA
:1006480001300310A00DA10DFF3E031D252B013025
:10065800FA007A08A407A11F322B332B242B013070
:100668000310A60DA70DFF3E031D342B21082302FE
:10067800031D402B20082202031C432B442B4B2B29
:100688002008A2022108031CA303A3022614013098
:100698000310A10CA00CFF3E031D4C2B0130A4023B
:1006A800031D572B582B332B250803195C2B5D2B67
:1006B800622BA609A709A60A0319A70A2708A100F9
:1006C8002608A0000800F901F61F6B2B6C2B732B72
:1006D800F509F609F50A0319F60AF901F90AF41FEA
:1006E800762B772B7C2BF309F409F30A0319F40A08
:1006F800730874040319812B822BB12BF801F80AB3
:10070800902B01300310F30DF40DFF3E031D862BD3
:100718000130F7007708F807F41F932B942B852BEB
:1007280074087602031D9A2B73087502031C9D2B0F
:100738009E2BA42B7308F5027408031CF603F6021B
:1007480001300310F40CF30CFF3E031DA52B013000
:10075800F802031DB02BB12B942B79080319B52B84
:10076800B62BBB2BF509F609F50A0319F60A760824
:10077800F4007508F30008000B1DC32BC42BEC2BE9
:10078800831203133508031DCA2BCB2BCC2B1F1543
:100798003503031DD02BD12BD22B1F110130F000B4
:1007A8007008B5070130F0007008B1070230350253
:1007B800031CDF2BE02BE12BB5019F18E42BE52B65
:1007C800E72BB401B40A0B1182308100B401B40ADA
:1007D80072088A00710E8300FE0E7E0E0900F40076
:1007E800F501F601122CF701F8010130F70703189B
:1007F800F80A0030F8077808803AFF0080307F0256
:10080800031D082CFF307702031C0B2C0C2CF92B32
:100818000130F5070318F60A0030F6077608803A23
:10082800F30080307302031D1B2C74087502031C2F
:100838001E2C1F2CF72B0800831603130910891090
:1008480088018312031309108910880132300A12B3
:100858008A11F3230A128A1102300A128A11EC242F
:100868000A128A1138300A128A11EC240A128A11E3
:100878000C300A128A11EC240A128A1106300A1264
:100888008A11EC240A128A11080003308316031314
:100898008500033083160317880089018316031324
:1008A8008601870188018901831203138601870164
:1008B80088018901831603138112811101108114A3
:1008C80001118B160B118B178230831203138100D1
:1008D80008008312031322032304031D742C752CB0
:1008E8007B2C2008803EFA007A08A500802C20087E
:1008F800C03EFA007A08A50025080A128A11EC24DD
:100908000A128A118312031324080A128A118F24E7
:100918000A128A110800F900A12C790884000A1229
:100928008A1168220A128A110A128A11DA240A1212
:100938008A110130F8007808F907790884000A124A
:100948008A1168220A128A11003A031DAC2CAD2CB8
:10095800912C0800F400F501F601B92C00000130D3
:10096800F5070318F60A0030F6077608803AF30010
:1009780080307302031DC22C74087502031CC52C39
:10098800C62CB22C080083120313891405300A12EE
:100998008A11AE240A128A118312031389100530B2
:1009A8000A128A11AE240A128A110800F70083126B
:1009B80003130914770888000A128A11C7240A1237
:1009C8008A1132300A128A11AE240A128A110800DA
:1009D800F900831203130910790888000A128A1192
:1009E800C7240A128A1102300A128A11F3230A1242
:1009F8008A110800831603139F139F121F12831274
:100A080003139F131F179F121F129F111F111F14EB
:100A1800080002300A128A11EC240A128A1108000E
:0E0A280001300A128A11EC240A128A11080009
:04400E00D4E0FFFFFC
:00000001FF
