:020000040000FA
:060000000A128A110C280F
:10000800FE00030EF1000A08F2000A128A118F2876
:100018000A128A110F28F801F901FA018312031351
:10002800A60183010A128A1119280A128A11EB20E3
:100038000A128A110A128A11C2200A128A110A1295
:100048008A116E210A128A1180300A128A113B2104
:100058000A128A110A128A115F210A128A11790377
:10006800031D372838283328F9017A08031D3D284D
:100078003E284628831203131E08A5002508F80009
:10008800780886007A03031D4A284B2853288312D0
:1000980003131E08A5002508A6002608870083125A
:1000A80003139F1433280A128A110C28831203138E
:1000B800A000A101A201812883120313A301A401B6
:1000C800013083120313A3070318A40A0030A407FE
:1000D8002408803AFF0080307F02031D7528FF3016
:1000E8002302031C7828792864280130831203131B
:1000F800A1070318A20A0030A2072208803AF300D9
:1001080080307302031D8A2820082102031C8D28D1
:100118008E28602808000B1D92289328BB287A088F
:10012800031D972898289B28831203131F157A0309
:10013800031D9F28A028A328831203131F11013031
:10014800F0007008FA0702307A02031CAC28AD28C8
:10015800AE28FA01831203139F18B328B428B628CF
:10016800F901F90A0B1182308100F901F90A7208C4
:100178008A00710E8300FE0E7E0E0900831603139B
:100188000910891088018312031309108910880146
:1001980032300A128A115A200A128A1102300A12BF
:1001A8008A114D210A128A1138300A128A114D21FA
:1001B8000A128A110C300A128A114D210A128A1168
:1001C80006300A128A114D210A128A1108000330DA
:1001D80083160313850003308316031788008901EB
:1001E800831603138601870188018901831203138B
:1001F8008601870188018901831603138112811101
:100208000110811401118B160B118B178230831288
:10021800031381000800F400F501F6011A29000013
:100228000130F5070318F60A0030F6077608803A19
:10023800F30080307302031D232974087502031C20
:100248002629272913290800831203138914053046
:100258000A128A110F210A128A11831203138910B4
:1002680005300A128A110F210A128A110800F700B4
:10027800831203130914770888000A128A112821A7
:100288000A128A1132300A128A110F210A128A11AF
:100298000800F700831203130910770888000A1270
:1002A8008A1128210A128A1102300A128A115A2048
:1002B8000A128A110800831603139F139F121F1234
:1002C800831203139F131F179F121F129F111F11D1
:1002D8001F14080001300A128A114D210A128A11CE
:0202E80008000C
:04400E00D4E0FFFFFC
:00000001FF
