:020000040000FA
:060000000A128A110C280F
:10000800FE00030EF1000A08F2000A128A113E2EC1
:100018000A128A110F2883120313C101C201C301F6
:10002800C401C501C601C701C801C901CA01CB0184
:10003800CC0183010A128A11AB2B83120313BD0072
:10004800FA303D02031C29282A282E28FA30A90054
:100058002908BD00BF013230A0000030A1003230B5
:10006800F3000030F4003D08A900AA012908F500B2
:100078002A08F6000A128A11E5250A128A11831243
:1000880003133D08AB0073082B02A2007409031880
:10009800013EA3000A128A117C250A128A118312D2
:1000A80003132008AC002C08AE003D08A900AA01E3
:1000B8002908F5002A08F6003230F3000030F40071
:1000C8000A128A11E5250A128A1174088312031389
:1000D800B8007308B7000530A0000030A100323026
:1000E800F3000030F4003D08A900AA012908F50032
:1000F8002A08F6000A128A11E5250A128A117308DD
:1001080083120313AB007408AC000530F300003011
:10011800F4003808F6003708F5000A128A11E525B8
:100128000A128A117308831203132B02A20074089F
:10013800031C740A2C02A3000A128A117C250A12D5
:100148008A11831203132008AD002D08AF003D0863
:10015800A900AA012908F5002A08F6003230F300A0
:100168000030F4000A128A11E5250A128A1174086F
:1001780083120313B8007308B7000530F30000308A
:10018800F4003808F6003708F5000A128A11E52548
:100198000A128A11730883120313A9002907AA00F7
:1001A8002A08B000313084000630FF008313800134
:1001B800840AFF0BDA282E08A900AA012908B10031
:1001C8002A08B2002F08A900AA012908B3002A08A2
:1001D800B4003008A900AA012908B5002A08B60009
:1001E8002808031DF828F9284D2AB901BA018312F5
:1001F80003133908A9002907313E84008313000836
:10020800AA002A08BE0039083A04031D0C290D2942
:100218000F29BF01BF0A39033A04031D1429152900
:1002280019290330A9002908BF00023039063A0409
:10023800031D1F29202924290430A9002908BF00EB
:100248003E08031D282929293D293F08A900AA019C
:100258002908A0002A08A1000230A2000030A3004B
:100268002130AB002B08A4000A128A11EB260A12CF
:100278008A11831203133E03031D43294429582975
:100288003F08A900AA012908A0002A08A1000230F5
:10029800A2000030A3006730AB002B08A4000A12AC
:1002A8008A11EB260A128A110230831203133E06C2
:1002B800031D5F29602974293F08A900AA0129089C
:1002C800A0002A08A1000230A2000030A300693073
:1002D800AB002B08A4000A128A11EB260A128A1115
:1002E8000330831203133E06031D7B297C299029C2
:1002F8003F08A900AA012908A0002A08A100023085
:10030800A2000030A3003230AB002B08A4000A1270
:100318008A11EB260A128A110430831203133E064F
:10032800031D97299829AC293F08A900AA01290883
:10033800A0002A08A1000230A2000030A3006B3000
:10034800AB002B08A4000A128A11EB260A128A11A4
:100358000530831203133E06031DB329B429C829A7
:100368003F08A900AA012908A0002A08A100023014
:10037800A2000030A3006D30AB002B08A4000A12C5
:100388008A11EB260A128A110630831203133E06DD
:10039800031DCF29D029E4293F08A900AA0129086B
:1003A800A0002A08A1000230A2000030A3006F308C
:1003B800AB002B08A4000A128A11EB260A128A1134
:1003C8000730831203133E06031DEB29EC29002A8C
:1003D8003F08A900AA012908A0002A08A1000230A4
:1003E800A2000030A3007130AB002B08A4000A1251
:1003F8008A11EB260A128A110830831203133E066B
:10040800031D072A082A1C2A3F08A900AA0129084F
:10041800A0002A08A1000230A2000030A300733017
:10042800AB002B08A4000A128A11EB260A128A11C3
:100438000930831203133E06031D232A242A382A6F
:100448003F08A900AA012908A0002A08A100023033
:10045800A2000030A3007530AB002B08A4000A12DC
:100468008A11EB260A128A11013083120313B90785
:100478000318BA0A0030BA073A08803AFF008030F9
:100488007F02031D492A03303902031C4C2A4D2AD6
:10049800FB28831203132803031D532A542AAA2B6B
:1004A800BB01BC01831203133B08A9002907313E95
:1004B800840083130008AA002A08BE003B083C04F5
:1004C800031D672A682A6C2A0730A9002908BF007B
:1004D8003B033C04031D712A722A762A0930A900BD
:1004E8002908BF0002303B063C04031D7C2A7D2AF4
:1004F800812A0A30A9002908BF003E08031D852A61
:10050800862A9A2A3F08A900AA012908A0002A08D1
:10051800A1000230A2000030A3002130AB002B085C
:10052800A4000A128A11EB260A128A1183120313F5
:100538003E03031DA02AA12AB52A3F08A900AA0143
:100548002908A0002A08A1000230A2000030A30058
:100558006730AB002B08A4000A128A11EB260A1296
:100568008A110230831203133E06031DBC2ABD2ADA
:10057800D12A3F08A900AA012908A0002A08A10039
:100588000230A2000030A3006930AB002B08A400A1
:100598000A128A11EB260A128A11033083120313F6
:1005A8003E06031DD82AD92AED2A3F08A900AA0128
:1005B8002908A0002A08A1000230A2000030A300E8
:1005C8003230AB002B08A4000A128A11EB260A125B
:1005D8008A110430831203133E06031DF42AF52AF8
:1005E800092B3F08A900AA012908A0002A08A10090
:1005F8000230A2000030A3006B30AB002B08A4002F
:100608000A128A11EB260A128A1105308312031383
:100618003E06031D102B112B252B3F08A900AA010C
:100628002908A0002A08A1000230A2000030A30077
:100638006D30AB002B08A4000A128A11EB260A12AF
:100648008A110630831203133E06031D2C2B2D2B13
:10065800412B3F08A900AA012908A0002A08A100E7
:100668000230A2000030A3006F30AB002B08A400BA
:100678000A128A11EB260A128A1107308312031311
:100688003E06031D482B492B5D2B3F08A900AA01F4
:100698002908A0002A08A1000230A2000030A30007
:1006A8007130AB002B08A4000A128A11EB260A123B
:1006B8008A110830831203133E06031D642B652B31
:1006C800792B3F08A900AA012908A0002A08A1003F
:1006D8000230A2000030A3007330AB002B08A40046
:1006E8000A128A11EB260A128A110930831203139F
:1006F8003E06031D802B812B952B3F08A900AA01DC
:100708002908A0002A08A1000230A2000030A30096
:100718007530AB002B08A4000A128A11EB260A12C6
:100728008A11013083120313BB070318BC0A003077
:10073800BC073C08803AFF0080307F02031DA62BCF
:1007480003303B02031CA92BAA2B562A08000A12C5
:100758008A11C7260A128A110A128A119E260A12BB
:100768008A110A128A11A8270A128A110A128A11F2
:10077800A1270A128A11003083120313A000A100D6
:100788000130A2000030A3002330C0004008A400BC
:100798000A128A11EB260A128A1196300A128A1155
:1007A80071260A128A11003083120313A000A100D7
:1007B8000230A2000030A3004530C0004008A40069
:1007C8000A128A11EB260A128A1196300A128A1125
:1007D80071260A128A110A128A11A8270A128A1186
:1007E8000A128A11A1270A128A11003083120313F0
:1007F800A000A1000130A2000030A3003430C000E6
:100808004008A4000A128A11EB260A128A119630AF
:100818000A128A1171260A128A11003083120313F0
:10082800A000A1000230A2000030A3000130C000E7
:100838004008A4000A128A11EB260A128A1196307F
:100848000A128A1171260A128A110A128A11A82715
:100858000A128A110A128A11A1270A128A11003073
:1008680083120313A000A1000130A2000030A300EE
:100878005630C0004008A4000A128A11EB260A125A
:100888008A11003083120313A000A1000230A200D5
:100898000030A3001230C0004008A4000A128A11D8
:1008A800EB260A128A110030F6000030F5002530D8
:1008B800F4008030F3000A128A1145270A128A11BF
:1008C8000A128A1192270A128A11831203134B0300
:1008D800031D6F2C702C842CCB014C08031D752C28
:1008E800762C7A2C1E08C0004008CA004C03031D51
:1008F8007E2C7F2C832C1E08C0004008C9009F1442
:1009080014304806031D892C8A2C692C4708031DBE
:100918008E2C8F2C962CA8014A080A128A112120A5
:100928000A128A11831203134703031D9C2C9D2C62
:10093800A52CA801A80A49080A128A1121200A121E
:100948008A11013083120313C0004008C707023020
:100958004702031CB02CB12CB22CC701C801692C6A
:060968000A128A110C289E
:100A000005308A000408840A820700342D344D34EE
:100A100050344C344134423458342D3458344334F7
:100A200038342D345034493443342D3400347C343C
:100A300030342E343034303456347C3430342E3428
:100A40003034303456347C34303430343034003444
:100A50004C34413442344F345234413454344F34A2
:100A6000523449344F3420344E346F342E343334BE
:100A700000344D3441344E3445344A344F342034FC
:100A8000503441344E3445344C3420344C344334A7
:100A9000443400344C3475346934733420344E3467
:100AA0002E342034313438343434383432345534FC
:100AB0005634473400347C34533445344E342E3469
:100AC00032347C34533445344E342E3431347C3417
:100AD000203443345434003431340034323400345C
:100AE0003434003435340034363400343734003490
:100AF000383400343934003483120313A501A11FA4
:100B0000822D832D8A2DA009A109A00A0319A10A0B
:100B1000A501A50AA31F8D2D8E2D972DA209A3092E
:100B2000A20A0319A30A0130FA007A08A506A60151
:100B3000A7012008210403199E2D9F2DD62DA40165
:100B4000A40AAD2D01300310A00DA10DFF3E031D21
:100B5000A32D0130FA007A08A407A11FB02DB12DF2
:100B6000A22D01300310A60DA70DFF3E031DB22DCF
:100B700021082302031DBE2D20082202031CC12DC3
:100B8000C22DC92D2008A2022108031CA303A30221
:100B9000261401300310A10CA00CFF3E031DCA2D2A
:100BA0000130A402031DD52DD62DB12D2508031922
:100BB000DA2DDB2DE02DA609A709A60A0319A70A3D
:100BC0002708A1002608A0000800F901F61FE92D5A
:100BD000EA2DF12DF509F609F50A0319F60AF901CE
:100BE000F90AF41FF42DF52DFA2DF309F409F30A8F
:100BF0000319F40A730874040319FF2D002E2F2E15
:100C0000F801F80A0E2E01300310F30DF40DFF3E2B
:100C1000031D042E0130F7007708F807F41F112E8A
:100C2000122E032E74087602031D182E7308750207
:100C3000031C1B2E1C2E222E7308F5027408031CA5
:100C4000F603F60201300310F40CF30CFF3E031D13
:100C5000232E0130F802031D2E2E2F2E122E79087E
:100C60000319332E342E392EF509F609F50A031926
:100C7000F60A7608F4007508F30008000B1D412EF3
:100C8000422E6A2E831203134C08031D482E492E50
:100C90004A2E1F154C03031D4E2E4F2E502E1F1192
:100CA0000130F0007008CC070130F0007008C80770
:100CB00002304C02031C5D2E5E2E5F2ECC019F186D
:100CC000622E632E652ECB01CB0A0B118230810080
:100CD000CB01CB0A72088A00710E8300FE0E7E0ED5
:100CE0000900F400F501F601902EF701F80101303A
:100CF000F7070318F80A0030F8077808803AFF0071
:100D000080307F02031D862EFF307702031C892E60
:100D10008A2E772E0130F5070318F60A0030F60701
:100D20007608803AF30080307302031D992E740810
:100D30007502031C9C2E9D2E752E0800831603132E
:100D40000910891088018312031309108910880182
:100D500032300A128A1171260A128A1102300A12DE
:100D60008A1180270A128A1138300A128A118027C4
:100D70000A128A110C300A128A1180270A128A116B
:100D800006300A128A1180270A128A1108000330DD
:100D90008316031385000330831603178800890127
:100DA00083160313860187018801890183120313C7
:100DB000860187018801890183160313811281113D
:100DC0000110811401118B160B118B1782308312C5
:100DD0000313810008008312031322032304031D5D
:100DE000F22EF32EF92E2008803EFA007A08A50094
:100DF000FE2E2008C03EFA007A08A50025080A1237
:100E00008A1180270A128A118312031324080A12F6
:100E10008A110D270A128A110800F9001F2F79087C
:100E200084000A128A1100250A128A110A128A11F4
:100E30006E270A128A110130F8007808F90779083C
:100E400084000A128A1100250A128A11003A031D31
:100E50002A2F2B2F0F2F0800F400F501F601372F52
:100E600000000130F5070318F60A0030F60776088F
:100E7000803AF30080307302031D402F740875021E
:100E8000031C432F442F302F08008316031307132E
:100E90008717181283120313981783160313181554
:100EA0001813981683120313181318161930831683
:100EB00003139900080083120313891405300A12E2
:100EC0008A112C270A128A11831203138910053004
:100ED0000A128A112C270A128A110800F7008312BD
:100EE00003130914770888000A128A115B270A1273
:100EF0008A1132300A128A112C270A128A1108002C
:100F0000F900831203130910790888000A128A1164
:100F10005B270A128A1102300A128A1171260A12FC
:100F20008A110800831603139F139F121F12831246
:100F300003139F131F179F121F129F111F111F14BE
:100F4000080002300A128A1180270A128A1108004A
:0E0F500001300A128A1180270A128A11080045
:04400E00D4E0FFFFFC
:00000001FF
